{
  "_format": "hh-sol-artifact-1",
  "contractName": "MonadNFTCollection",
  "sourceName": "contracts/MonadNFTCollection.sol",
  "abi": [
    {
      "anonymous": false,
      "inputs": [
        {
          "indexed": true,
          "internalType": "address",
          "name": "admin",
          "type": "address"
        }
      ],
      "name": "AdminAdded",
      "type": "event"
    },
    {
      "anonymous": false,
      "inputs": [
        {
          "indexed": false,
          "internalType": "address",
          "name": "previousAdmin",
          "type": "address"
        },
        {
          "indexed": false,
          "internalType": "address",
          "name": "newAdmin",
          "type": "address"
        }
      ],
      "name": "AdminChanged",
      "type": "event"
    },
    {
      "anonymous": false,
      "inputs": [
        {
          "indexed": true,
          "internalType": "address",
          "name": "admin",
          "type": "address"
        }
      ],
      "name": "AdminRemoved",
      "type": "event"
    },
    {
      "anonymous": false,
      "inputs": [
        {
          "indexed": true,
          "internalType": "address",
          "name": "owner",
          "type": "address"
        },
        {
          "indexed": true,
          "internalType": "address",
          "name": "approved",
          "type": "address"
        },
        {
          "indexed": true,
          "internalType": "uint256",
          "name": "tokenId",
          "type": "uint256"
        }
      ],
      "name": "Approval",
      "type": "event"
    },
    {
      "anonymous": false,
      "inputs": [
        {
          "indexed": true,
          "internalType": "address",
          "name": "owner",
          "type": "address"
        },
        {
          "indexed": true,
          "internalType": "address",
          "name": "operator",
          "type": "address"
        },
        {
          "indexed": false,
          "internalType": "bool",
          "name": "approved",
          "type": "bool"
        }
      ],
      "name": "ApprovalForAll",
      "type": "event"
    },
    {
      "anonymous": false,
      "inputs": [
        {
          "indexed": false,
          "internalType": "uint256",
          "name": "_fromTokenId",
          "type": "uint256"
        },
        {
          "indexed": false,
          "internalType": "uint256",
          "name": "_toTokenId",
          "type": "uint256"
        }
      ],
      "name": "BatchMetadataUpdate",
      "type": "event"
    },
    {
      "anonymous": false,
      "inputs": [
        {
          "indexed": true,
          "internalType": "address",
          "name": "beacon",
          "type": "address"
        }
      ],
      "name": "BeaconUpgraded",
      "type": "event"
    },
    {
      "anonymous": false,
      "inputs": [
        {
          "indexed": false,
          "internalType": "string",
          "name": "newContractURI",
          "type": "string"
        }
      ],
      "name": "ContractURIUpdated",
      "type": "event"
    },
    {
      "anonymous": false,
      "inputs": [
        {
          "indexed": false,
          "internalType": "uint8",
          "name": "version",
          "type": "uint8"
        }
      ],
      "name": "Initialized",
      "type": "event"
    },
    {
      "anonymous": false,
      "inputs": [
        {
          "indexed": false,
          "internalType": "uint256",
          "name": "_tokenId",
          "type": "uint256"
        }
      ],
      "name": "MetadataUpdate",
      "type": "event"
    },
    {
      "anonymous": false,
      "inputs": [
        {
          "indexed": true,
          "internalType": "address",
          "name": "previousOwner",
          "type": "address"
        },
        {
          "indexed": true,
          "internalType": "address",
          "name": "newOwner",
          "type": "address"
        }
      ],
      "name": "OwnershipTransferred",
      "type": "event"
    },
    {
      "anonymous": false,
      "inputs": [
        {
          "indexed": false,
          "internalType": "address",
          "name": "account",
          "type": "address"
        }
      ],
      "name": "Paused",
      "type": "event"
    },
    {
      "anonymous": false,
      "inputs": [
        {
          "indexed": false,
          "internalType": "address",
          "name": "receiver",
          "type": "address"
        },
        {
          "indexed": false,
          "internalType": "uint96",
          "name": "feeNumerator",
          "type": "uint96"
        }
      ],
      "name": "RoyaltyInfoUpdated",
      "type": "event"
    },
    {
      "anonymous": false,
      "inputs": [
        {
          "indexed": true,
          "internalType": "address",
          "name": "signer",
          "type": "address"
        }
      ],
      "name": "SignerAdded",
      "type": "event"
    },
    {
      "anonymous": false,
      "inputs": [
        {
          "indexed": true,
          "internalType": "address",
          "name": "signer",
          "type": "address"
        }
      ],
      "name": "SignerRemoved",
      "type": "event"
    },
    {
      "anonymous": false,
      "inputs": [
        {
          "indexed": false,
          "internalType": "uint256",
          "name": "tokenId",
          "type": "uint256"
        }
      ],
      "name": "TokenBurned",
      "type": "event"
    },
    {
      "anonymous": false,
      "inputs": [
        {
          "indexed": true,
          "internalType": "address",
          "name": "to",
          "type": "address"
        },
        {
          "indexed": false,
          "internalType": "uint256",
          "name": "tokenId",
          "type": "uint256"
        },
        {
          "indexed": false,
          "internalType": "string",
          "name": "tokenURI",
          "type": "string"
        },
        {
          "indexed": false,
          "internalType": "string",
          "name": "traits",
          "type": "string"
        },
        {
          "indexed": false,
          "internalType": "uint256",
          "name": "rarity",
          "type": "uint256"
        }
      ],
      "name": "TokenMinted",
      "type": "event"
    },
    {
      "anonymous": false,
      "inputs": [
        {
          "indexed": false,
          "internalType": "uint256",
          "name": "tokenId",
          "type": "uint256"
        },
        {
          "indexed": false,
          "internalType": "string",
          "name": "newTokenURI",
          "type": "string"
        }
      ],
      "name": "TokenURIUpdated",
      "type": "event"
    },
    {
      "anonymous": false,
      "inputs": [
        {
          "indexed": true,
          "internalType": "uint256",
          "name": "tokenId",
          "type": "uint256"
        },
        {
          "indexed": false,
          "internalType": "string",
          "name": "newTraits",
          "type": "string"
        },
        {
          "indexed": false,
          "internalType": "uint256",
          "name": "newRarity",
          "type": "uint256"
        }
      ],
      "name": "TraitsAndRarityUpdated",
      "type": "event"
    },
    {
      "anonymous": false,
      "inputs": [
        {
          "indexed": true,
          "internalType": "address",
          "name": "from",
          "type": "address"
        },
        {
          "indexed": true,
          "internalType": "address",
          "name": "to",
          "type": "address"
        },
        {
          "indexed": true,
          "internalType": "uint256",
          "name": "tokenId",
          "type": "uint256"
        }
      ],
      "name": "Transfer",
      "type": "event"
    },
    {
      "anonymous": false,
      "inputs": [
        {
          "indexed": false,
          "internalType": "address",
          "name": "account",
          "type": "address"
        }
      ],
      "name": "Unpaused",
      "type": "event"
    },
    {
      "anonymous": false,
      "inputs": [
        {
          "indexed": true,
          "internalType": "address",
          "name": "implementation",
          "type": "address"
        }
      ],
      "name": "Upgraded",
      "type": "event"
    },
    {
      "inputs": [
        {
          "internalType": "address",
          "name": "admin",
          "type": "address"
        }
      ],
      "name": "addAdmin",
      "outputs": [],
      "stateMutability": "nonpayable",
      "type": "function"
    },
    {
      "inputs": [
        {
          "internalType": "address",
          "name": "signer",
          "type": "address"
        }
      ],
      "name": "addSigner",
      "outputs": [],
      "stateMutability": "nonpayable",
      "type": "function"
    },
    {
      "inputs": [
        {
          "internalType": "address",
          "name": "",
          "type": "address"
        }
      ],
      "name": "admins",
      "outputs": [
        {
          "internalType": "bool",
          "name": "",
          "type": "bool"
        }
      ],
      "stateMutability": "view",
      "type": "function"
    },
    {
      "inputs": [
        {
          "internalType": "uint256",
          "name": "",
          "type": "uint256"
        }
      ],
      "name": "allAdmins",
      "outputs": [
        {
          "internalType": "address",
          "name": "",
          "type": "address"
        }
      ],
      "stateMutability": "view",
      "type": "function"
    },
    {
      "inputs": [
        {
          "internalType": "uint256",
          "name": "",
          "type": "uint256"
        }
      ],
      "name": "allSigners",
      "outputs": [
        {
          "internalType": "address",
          "name": "",
          "type": "address"
        }
      ],
      "stateMutability": "view",
      "type": "function"
    },
    {
      "inputs": [
        {
          "internalType": "address",
          "name": "to",
          "type": "address"
        },
        {
          "internalType": "uint256",
          "name": "tokenId",
          "type": "uint256"
        }
      ],
      "name": "approve",
      "outputs": [],
      "stateMutability": "nonpayable",
      "type": "function"
    },
    {
      "inputs": [
        {
          "internalType": "address",
          "name": "owner",
          "type": "address"
        }
      ],
      "name": "balanceOf",
      "outputs": [
        {
          "internalType": "uint256",
          "name": "",
          "type": "uint256"
        }
      ],
      "stateMutability": "view",
      "type": "function"
    },
    {
      "inputs": [
        {
          "internalType": "uint256",
          "name": "tokenId",
          "type": "uint256"
        }
      ],
      "name": "burn",
      "outputs": [],
      "stateMutability": "nonpayable",
      "type": "function"
    },
    {
      "inputs": [],
      "name": "contractURI",
      "outputs": [
        {
          "internalType": "string",
          "name": "",
          "type": "string"
        }
      ],
      "stateMutability": "view",
      "type": "function"
    },
    {
      "inputs": [],
      "name": "getAdmins",
      "outputs": [
        {
          "internalType": "address[]",
          "name": "",
          "type": "address[]"
        }
      ],
      "stateMutability": "view",
      "type": "function"
    },
    {
      "inputs": [
        {
          "internalType": "uint256",
          "name": "tokenId",
          "type": "uint256"
        }
      ],
      "name": "getApproved",
      "outputs": [
        {
          "internalType": "address",
          "name": "",
          "type": "address"
        }
      ],
      "stateMutability": "view",
      "type": "function"
    },
    {
      "inputs": [],
      "name": "getSigners",
      "outputs": [
        {
          "internalType": "address[]",
          "name": "",
          "type": "address[]"
        }
      ],
      "stateMutability": "view",
      "type": "function"
    },
    {
      "inputs": [
        {
          "internalType": "string",
          "name": "name_",
          "type": "string"
        },
        {
          "internalType": "string",
          "name": "symbol_",
          "type": "string"
        },
        {
          "internalType": "string",
          "name": "contractURI_",
          "type": "string"
        },
        {
          "internalType": "address",
          "name": "royaltyReceiver",
          "type": "address"
        },
        {
          "internalType": "uint96",
          "name": "royaltyFeeNumerator",
          "type": "uint96"
        },
        {
          "internalType": "address",
          "name": "initialOwner",
          "type": "address"
        }
      ],
      "name": "initialize",
      "outputs": [],
      "stateMutability": "nonpayable",
      "type": "function"
    },
    {
      "inputs": [
        {
          "internalType": "address",
          "name": "owner",
          "type": "address"
        },
        {
          "internalType": "address",
          "name": "operator",
          "type": "address"
        }
      ],
      "name": "isApprovedForAll",
      "outputs": [
        {
          "internalType": "bool",
          "name": "",
          "type": "bool"
        }
      ],
      "stateMutability": "view",
      "type": "function"
    },
    {
      "inputs": [
        {
          "internalType": "address",
          "name": "to",
          "type": "address"
        },
        {
          "internalType": "string",
          "name": "tokenURI_",
          "type": "string"
        },
        {
          "internalType": "string",
          "name": "traits_",
          "type": "string"
        },
        {
          "internalType": "uint256",
          "name": "rarity_",
          "type": "uint256"
        }
      ],
      "name": "mint",
      "outputs": [
        {
          "internalType": "uint256",
          "name": "",
          "type": "uint256"
        }
      ],
      "stateMutability": "nonpayable",
      "type": "function"
    },
    {
      "inputs": [],
      "name": "name",
      "outputs": [
        {
          "internalType": "string",
          "name": "",
          "type": "string"
        }
      ],
      "stateMutability": "view",
      "type": "function"
    },
    {
      "inputs": [],
      "name": "nextTokenId",
      "outputs": [
        {
          "internalType": "uint256",
          "name": "",
          "type": "uint256"
        }
      ],
      "stateMutability": "view",
      "type": "function"
    },
    {
      "inputs": [],
      "name": "owner",
      "outputs": [
        {
          "internalType": "address",
          "name": "",
          "type": "address"
        }
      ],
      "stateMutability": "view",
      "type": "function"
    },
    {
      "inputs": [
        {
          "internalType": "uint256",
          "name": "tokenId",
          "type": "uint256"
        }
      ],
      "name": "ownerOf",
      "outputs": [
        {
          "internalType": "address",
          "name": "",
          "type": "address"
        }
      ],
      "stateMutability": "view",
      "type": "function"
    },
    {
      "inputs": [],
      "name": "pause",
      "outputs": [],
      "stateMutability": "nonpayable",
      "type": "function"
    },
    {
      "inputs": [],
      "name": "paused",
      "outputs": [
        {
          "internalType": "bool",
          "name": "",
          "type": "bool"
        }
      ],
      "stateMutability": "view",
      "type": "function"
    },
    {
      "inputs": [],
      "name": "proxiableUUID",
      "outputs": [
        {
          "internalType": "bytes32",
          "name": "",
          "type": "bytes32"
        }
      ],
      "stateMutability": "view",
      "type": "function"
    },
    {
      "inputs": [
        {
          "internalType": "uint256",
          "name": "",
          "type": "uint256"
        }
      ],
      "name": "rarity",
      "outputs": [
        {
          "internalType": "uint256",
          "name": "",
          "type": "uint256"
        }
      ],
      "stateMutability": "view",
      "type": "function"
    },
    {
      "inputs": [
        {
          "internalType": "address",
          "name": "admin",
          "type": "address"
        }
      ],
      "name": "removeAdmin",
      "outputs": [],
      "stateMutability": "nonpayable",
      "type": "function"
    },
    {
      "inputs": [
        {
          "internalType": "address",
          "name": "signer",
          "type": "address"
        }
      ],
      "name": "removeSigner",
      "outputs": [],
      "stateMutability": "nonpayable",
      "type": "function"
    },
    {
      "inputs": [],
      "name": "renounceOwnership",
      "outputs": [],
      "stateMutability": "nonpayable",
      "type": "function"
    },
    {
      "inputs": [
        {
          "internalType": "uint256",
          "name": "tokenId",
          "type": "uint256"
        },
        {
          "internalType": "uint256",
          "name": "salePrice",
          "type": "uint256"
        }
      ],
      "name": "royaltyInfo",
      "outputs": [
        {
          "internalType": "address",
          "name": "",
          "type": "address"
        },
        {
          "internalType": "uint256",
          "name": "",
          "type": "uint256"
        }
      ],
      "stateMutability": "view",
      "type": "function"
    },
    {
      "inputs": [
        {
          "internalType": "address",
          "name": "from",
          "type": "address"
        },
        {
          "internalType": "address",
          "name": "to",
          "type": "address"
        },
        {
          "internalType": "uint256",
          "name": "tokenId",
          "type": "uint256"
        }
      ],
      "name": "safeTransferFrom",
      "outputs": [],
      "stateMutability": "nonpayable",
      "type": "function"
    },
    {
      "inputs": [
        {
          "internalType": "address",
          "name": "from",
          "type": "address"
        },
        {
          "internalType": "address",
          "name": "to",
          "type": "address"
        },
        {
          "internalType": "uint256",
          "name": "tokenId",
          "type": "uint256"
        },
        {
          "internalType": "bytes",
          "name": "data",
          "type": "bytes"
        }
      ],
      "name": "safeTransferFrom",
      "outputs": [],
      "stateMutability": "nonpayable",
      "type": "function"
    },
    {
      "inputs": [
        {
          "internalType": "address",
          "name": "operator",
          "type": "address"
        },
        {
          "internalType": "bool",
          "name": "approved",
          "type": "bool"
        }
      ],
      "name": "setApprovalForAll",
      "outputs": [],
      "stateMutability": "nonpayable",
      "type": "function"
    },
    {
      "inputs": [
        {
          "internalType": "string",
          "name": "newContractURI",
          "type": "string"
        }
      ],
      "name": "setContractURI",
      "outputs": [],
      "stateMutability": "nonpayable",
      "type": "function"
    },
    {
      "inputs": [
        {
          "internalType": "address",
          "name": "receiver",
          "type": "address"
        },
        {
          "internalType": "uint96",
          "name": "feeNumerator",
          "type": "uint96"
        }
      ],
      "name": "setRoyaltyInfo",
      "outputs": [],
      "stateMutability": "nonpayable",
      "type": "function"
    },
    {
      "inputs": [
        {
          "internalType": "uint256",
          "name": "tokenId",
          "type": "uint256"
        },
        {
          "internalType": "string",
          "name": "newTokenURI",
          "type": "string"
        }
      ],
      "name": "setTokenURI",
      "outputs": [],
      "stateMutability": "nonpayable",
      "type": "function"
    },
    {
      "inputs": [
        {
          "internalType": "uint256",
          "name": "tokenId",
          "type": "uint256"
        },
        {
          "internalType": "string",
          "name": "newTraits",
          "type": "string"
        },
        {
          "internalType": "uint256",
          "name": "newRarity",
          "type": "uint256"
        }
      ],
      "name": "setTraitsAndRarity",
      "outputs": [],
      "stateMutability": "nonpayable",
      "type": "function"
    },
    {
      "inputs": [
        {
          "internalType": "address",
          "name": "",
          "type": "address"
        }
      ],
      "name": "signers",
      "outputs": [
        {
          "internalType": "bool",
          "name": "",
          "type": "bool"
        }
      ],
      "stateMutability": "view",
      "type": "function"
    },
    {
      "inputs": [
        {
          "internalType": "bytes4",
          "name": "interfaceId",
          "type": "bytes4"
        }
      ],
      "name": "supportsInterface",
      "outputs": [
        {
          "internalType": "bool",
          "name": "",
          "type": "bool"
        }
      ],
      "stateMutability": "view",
      "type": "function"
    },
    {
      "inputs": [],
      "name": "symbol",
      "outputs": [
        {
          "internalType": "string",
          "name": "",
          "type": "string"
        }
      ],
      "stateMutability": "view",
      "type": "function"
    },
    {
      "inputs": [
        {
          "internalType": "uint256",
          "name": "tokenId",
          "type": "uint256"
        }
      ],
      "name": "tokenURI",
      "outputs": [
        {
          "internalType": "string",
          "name": "",
          "type": "string"
        }
      ],
      "stateMutability": "view",
      "type": "function"
    },
    {
      "inputs": [
        {
          "internalType": "uint256",
          "name": "",
          "type": "uint256"
        }
      ],
      "name": "traits",
      "outputs": [
        {
          "internalType": "string",
          "name": "",
          "type": "string"
        }
      ],
      "stateMutability": "view",
      "type": "function"
    },
    {
      "inputs": [
        {
          "internalType": "address",
          "name": "from",
          "type": "address"
        },
        {
          "internalType": "address",
          "name": "to",
          "type": "address"
        },
        {
          "internalType": "uint256",
          "name": "tokenId",
          "type": "uint256"
        }
      ],
      "name": "transferFrom",
      "outputs": [],
      "stateMutability": "nonpayable",
      "type": "function"
    },
    {
      "inputs": [
        {
          "internalType": "address",
          "name": "newOwner",
          "type": "address"
        }
      ],
      "name": "transferOwnership",
      "outputs": [],
      "stateMutability": "nonpayable",
      "type": "function"
    },
    {
      "inputs": [],
      "name": "unpause",
      "outputs": [],
      "stateMutability": "nonpayable",
      "type": "function"
    },
    {
      "inputs": [
        {
          "internalType": "address",
          "name": "newImplementation",
          "type": "address"
        }
      ],
      "name": "upgradeTo",
      "outputs": [],
      "stateMutability": "nonpayable",
      "type": "function"
    },
    {
      "inputs": [
        {
          "internalType": "address",
          "name": "newImplementation",
          "type": "address"
        },
        {
          "internalType": "bytes",
          "name": "data",
          "type": "bytes"
        }
      ],
      "name": "upgradeToAndCall",
      "outputs": [],
      "stateMutability": "payable",
      "type": "function"
    }
  ],
  "bytecode": "0x60a060405230608052348015601357600080fd5b5060805161390761004b60003960008181610eb901528181610ef9015281816111140152818161115401526111e701526139076000f3fe6080604052600436106102675760003560e01c80636352211e1161014457806394cf795e116100b6578063cff6bc211161007a578063cff6bc211461075b578063d670226d1461077b578063e8a3d4851461079b578063e985e9c5146107b0578063eb12d61e146107d0578063f2fde38b146107f057600080fd5b806394cf795e146106d157806395d89b41146106e6578063a22cb465146106fb578063b88d4fde1461071b578063c87b56dd1461073b57600080fd5b806375794a3c1161010857806375794a3c146106195780638456cb5914610630578063853d42ad146106455780638b58c569146106655780638da5cb5b14610693578063938e3d7b146106b157600080fd5b80636352211e14610573578063704802751461059357806370a08231146105b3578063715018a6146105d3578063736c0d5b146105e857600080fd5b80632d72225b116101dd57806342966c68116101a157806342966c68146104b3578063429b62e5146104d3578063434a479c146105045780634f1ef2861461052457806352d1902d146105375780635c975abb1461055a57600080fd5b80632d72225b1461041c57806331ae450b1461043c5780633659cfe61461045e5780633f4ba83a1461047e57806342842e0e1461049357600080fd5b8063095ea7b31161022f578063095ea7b31461033d5780630e316ab71461035d578063162094c41461037d5780631785f53c1461039d57806323b872dd146103bd5780632a55205a146103dd57600080fd5b806301ffc9a71461026c57806302fa7c47146102a157806306a4dc68146102c357806306fdde03146102fb578063081812fc1461031d575b600080fd5b34801561027857600080fd5b5061028c610287366004612e27565b610810565b60405190151581526020015b60405180910390f35b3480156102ad57600080fd5b506102c16102bc366004612e77565b610821565b005b3480156102cf57600080fd5b506102e36102de366004612eaa565b610882565b6040516001600160a01b039091168152602001610298565b34801561030757600080fd5b506103106108ad565b6040516102989190612f13565b34801561032957600080fd5b506102e3610338366004612eaa565b61093f565b34801561034957600080fd5b506102c1610358366004612f26565b610966565b34801561036957600080fd5b506102c1610378366004612f50565b610a80565b34801561038957600080fd5b506102c1610398366004613015565b610ad2565b3480156103a957600080fd5b506102c16103b8366004612f50565b610b61565b3480156103c957600080fd5b506102c16103d836600461305b565b610bb3565b3480156103e957600080fd5b506103fd6103f8366004613098565b610be4565b604080516001600160a01b039093168352602083019190915201610298565b34801561042857600080fd5b50610310610437366004612eaa565b610c90565b34801561044857600080fd5b50610451610d2b565b60405161029891906130ba565b34801561046a57600080fd5b506102c1610479366004612f50565b610eaf565b34801561048a57600080fd5b506102c1610f8e565b34801561049f57600080fd5b506102c16104ae36600461305b565b610fa0565b3480156104bf57600080fd5b506102c16104ce366004612eaa565b610fbb565b3480156104df57600080fd5b5061028c6104ee366004612f50565b6101c96020526000908152604090205460ff1681565b34801561051057600080fd5b506102c161051f366004613106565b611049565b6102c1610532366004613156565b61110a565b34801561054357600080fd5b5061054c6111da565b604051908152602001610298565b34801561056657600080fd5b5061012d5460ff1661028c565b34801561057f57600080fd5b506102e361058e366004612eaa565b61128d565b34801561059f57600080fd5b506102c16105ae366004612f50565b6112ed565b3480156105bf57600080fd5b5061054c6105ce366004612f50565b6113a4565b3480156105df57600080fd5b506102c161142a565b3480156105f457600080fd5b5061028c610603366004612f50565b6101c56020526000908152604090205460ff1681565b34801561062557600080fd5b5061054c6101c45481565b34801561063c57600080fd5b506102c161143c565b34801561065157600080fd5b5061054c61066036600461318d565b61144c565b34801561067157600080fd5b5061054c610680366004612eaa565b6101c76020526000908152604090205481565b34801561069f57600080fd5b5060fb546001600160a01b03166102e3565b3480156106bd57600080fd5b506102c16106cc36600461320c565b611554565b3480156106dd57600080fd5b50610451611599565b3480156106f257600080fd5b50610310611714565b34801561070757600080fd5b506102c1610716366004613240565b611723565b34801561072757600080fd5b506102c161073636600461327c565b61172e565b34801561074757600080fd5b50610310610756366004612eaa565b611766565b34801561076757600080fd5b506102e3610776366004612eaa565b61186e565b34801561078757600080fd5b506102c16107963660046132e3565b61187f565b3480156107a757600080fd5b506103106119d9565b3480156107bc57600080fd5b5061028c6107cb3660046133a5565b6119e7565b3480156107dc57600080fd5b506102c16107eb366004612f50565b611a15565b3480156107fc57600080fd5b506102c161080b366004612f50565b611acc565b600061081b82611b42565b92915050565b610829611b67565b6108338282611bc1565b604080516001600160a01b03841681526001600160601b03831660208201527fae1d656a1268648b04ffa79c1416f05879338ae295aae3234d8db217356a1c6291015b60405180910390a15050565b6101ca818154811061089357600080fd5b6000918252602090912001546001600160a01b0316905081565b6060606580546108bc906133cf565b80601f01602080910402602001604051908101604052809291908181526020018280546108e8906133cf565b80156109355780601f1061090a57610100808354040283529160200191610935565b820191906000526020600020905b81548152906001019060200180831161091857829003601f168201915b5050505050905090565b600061094a82611cbe565b506000908152606960205260409020546001600160a01b031690565b60006109718261128d565b9050806001600160a01b0316836001600160a01b0316036109e35760405162461bcd60e51b815260206004820152602160248201527f4552433732313a20617070726f76616c20746f2063757272656e74206f776e656044820152603960f91b60648201526084015b60405180910390fd5b336001600160a01b03821614806109ff57506109ff81336119e7565b610a715760405162461bcd60e51b815260206004820152603d60248201527f4552433732313a20617070726f76652063616c6c6572206973206e6f7420746f60448201527f6b656e206f776e6572206f7220617070726f76656420666f7220616c6c00000060648201526084016109da565b610a7b8383611d1d565b505050565b610a88611b67565b6001600160a01b03811660008181526101c56020526040808220805460ff19169055517f3525e22824a8a7df2c9a6029941c824cf95b6447f1e13d5128fd3826d35afe8b9190a250565b3360009081526101c5602052604090205460ff1680610b0a575033610aff60fb546001600160a01b031690565b6001600160a01b0316145b610b265760405162461bcd60e51b81526004016109da90613409565b610b308282611d8b565b7f931f495b9a8e5d8e61946ea5d61e021f636cfe213a801f97589c18c152e408bd8282604051610876929190613436565b610b69611b67565b6001600160a01b03811660008181526101c96020526040808220805460ff19169055517fa3b62bc36326052d97ea62d63c3d60308ed4c3ea8ac079dd8499f1e9c4f80c0f9190a250565b610bbd3382611e4f565b610bd95760405162461bcd60e51b81526004016109da9061344f565b610a7b838383611ead565b600082815260ca602090815260408083208151808301909252546001600160a01b038116808352600160a01b9091046001600160601b0316928201929092528291610c5957506040805180820190915260c9546001600160a01b0381168252600160a01b90046001600160601b031660208201525b602081015160009061271090610c78906001600160601b0316876134b2565b610c8291906134c9565b915196919550909350505050565b6101c66020526000908152604090208054610caa906133cf565b80601f0160208091040260200160405190810160405280929190818152602001828054610cd6906133cf565b8015610d235780601f10610cf857610100808354040283529160200191610d23565b820191906000526020600020905b815481529060010190602001808311610d0657829003601f168201915b505050505081565b60606000805b6101ca54811015610d98576101c960006101ca8381548110610d5557610d556134eb565b60009182526020808320909101546001600160a01b0316835282019290925260400190205460ff1615610d905781610d8c81613501565b9250505b600101610d31565b506000816001600160401b03811115610db357610db3612f6b565b604051908082528060200260200182016040528015610ddc578160200160208202803683370190505b5090506000805b6101ca54811015610ea6576101c960006101ca8381548110610e0757610e076134eb565b60009182526020808320909101546001600160a01b0316835282019290925260400190205460ff1615610e9e576101ca8181548110610e4857610e486134eb565b9060005260206000200160009054906101000a90046001600160a01b0316838381518110610e7857610e786134eb565b6001600160a01b039092166020928302919091019091015281610e9a81613501565b9250505b600101610de3565b50909392505050565b6001600160a01b037f0000000000000000000000000000000000000000000000000000000000000000163003610ef75760405162461bcd60e51b81526004016109da9061351a565b7f00000000000000000000000000000000000000000000000000000000000000006001600160a01b0316610f406000805160206138b4833981519152546001600160a01b031690565b6001600160a01b031614610f665760405162461bcd60e51b81526004016109da90613566565b610f6f8161201e565b60408051600080825260208201909252610f8b91839190612026565b50565b610f96611b67565b610f9e612191565b565b610a7b8383836040518060200160405280600081525061172e565b610fc53382611e4f565b6110095760405162461bcd60e51b81526020600482015260156024820152742737ba1030b8383937bb32b21037b91037bbb732b960591b60448201526064016109da565b611012816121e4565b6040518181527f0c526103b8f47af5516191d0c89a598755bd00faa211a3cb52e4c2cc782f7fe2906020015b60405180910390a150565b3360009081526101c5602052604090205460ff168061108157503361107660fb546001600160a01b031690565b6001600160a01b0316145b61109d5760405162461bcd60e51b81526004016109da90613409565b60008381526101c6602052604090206110b68382613600565b5060008381526101c76020526040908190208290555183907fb00c23f65ba99b5da64f394626afcb3a490b9000a122d304a42d07c4a2fdb0d6906110fd90859085906136be565b60405180910390a2505050565b6001600160a01b037f00000000000000000000000000000000000000000000000000000000000000001630036111525760405162461bcd60e51b81526004016109da9061351a565b7f00000000000000000000000000000000000000000000000000000000000000006001600160a01b031661119b6000805160206138b4833981519152546001600160a01b031690565b6001600160a01b0316146111c15760405162461bcd60e51b81526004016109da90613566565b6111ca8261201e565b6111d682826001612026565b5050565b6000306001600160a01b037f0000000000000000000000000000000000000000000000000000000000000000161461127a5760405162461bcd60e51b815260206004820152603860248201527f555550535570677261646561626c653a206d757374206e6f742062652063616c60448201527f6c6564207468726f7567682064656c656761746563616c6c000000000000000060648201526084016109da565b506000805160206138b483398151915290565b6000818152606760205260408120546001600160a01b03168061081b5760405162461bcd60e51b8152602060048201526018602482015277115490cdcc8c4e881a5b9d985b1a59081d1bdad95b88125160421b60448201526064016109da565b6112f5611b67565b6001600160a01b03811660009081526101c9602052604090205460ff16610f8b576001600160a01b03811660008181526101c96020526040808220805460ff191660019081179091556101ca8054918201815583527f0faeda9012b7f59bd2a84ac2a33ead5fc9f720c38d8bbf90db1ac3c1518386eb0180546001600160a01b03191684179055517f44d6d25963f097ad14f29f06854a01f575648a1ef82f30e562ccd3889717e3399190a250565b60006001600160a01b03821661140e5760405162461bcd60e51b815260206004820152602960248201527f4552433732313a2061646472657373207a65726f206973206e6f7420612076616044820152683634b21037bbb732b960b91b60648201526084016109da565b506001600160a01b031660009081526068602052604090205490565b611432611b67565b610f9e6000612224565b611444611b67565b610f9e612276565b3360009081526101c5602052604081205460ff168061148457503361147960fb546001600160a01b031690565b6001600160a01b0316145b6114a05760405162461bcd60e51b81526004016109da90613409565b6114a86122b4565b6101c48054600091826114ba83613501565b9190505590506114ca86826122fb565b6114d48186611d8b565b60008181526101c6602052604090206114ed8582613600565b5060008181526101c7602052604090819020849055516001600160a01b038716907f0e4d33dfa69566921c4e284e28496042d67a870fb41035db83cff2b1ccbdfb4b906115419084908990899089906136e0565b60405180910390a290505b949350505050565b61155c611b67565b6101c36115698282613600565b507f905d981207a7d0b6c62cc46ab0be2a076d0298e4a86d0ab79882dbd01ac373788160405161103e9190612f13565b60606000805b6101c854811015611606576101c560006101c883815481106115c3576115c36134eb565b60009182526020808320909101546001600160a01b0316835282019290925260400190205460ff16156115fe57816115fa81613501565b9250505b60010161159f565b506000816001600160401b0381111561162157611621612f6b565b60405190808252806020026020018201604052801561164a578160200160208202803683370190505b5090506000805b6101c854811015610ea6576101c560006101c88381548110611675576116756134eb565b60009182526020808320909101546001600160a01b0316835282019290925260400190205460ff161561170c576101c881815481106116b6576116b66134eb565b9060005260206000200160009054906101000a90046001600160a01b03168383815181106116e6576116e66134eb565b6001600160a01b03909216602092830291909101909101528161170881613501565b9250505b600101611651565b6060606680546108bc906133cf565b6111d6338383612315565b6117383383611e4f565b6117545760405162461bcd60e51b81526004016109da9061344f565b611760848484846123e3565b50505050565b606061177182611cbe565b6000828152609760205260408120805461178a906133cf565b80601f01602080910402602001604051908101604052809291908181526020018280546117b6906133cf565b80156118035780601f106117d857610100808354040283529160200191611803565b820191906000526020600020905b8154815290600101906020018083116117e657829003601f168201915b50505050509050600061182160408051602081019091526000815290565b90508051600003611833575092915050565b81511561186557808260405160200161184d92919061371d565b60405160208183030381529060405292505050919050565b61154c84612416565b6101c8818154811061089357600080fd5b600054610100900460ff161580801561189f5750600054600160ff909116105b806118b95750303b1580156118b9575060005460ff166001145b61191c5760405162461bcd60e51b815260206004820152602e60248201527f496e697469616c697a61626c653a20636f6e747261637420697320616c72656160448201526d191e481a5b9a5d1a585b1a5e995960921b60648201526084016109da565b6000805460ff19166001179055801561193f576000805461ff0019166101001790555b611949878761248a565b6119516124bb565b6119596124e2565b611961612511565b6119696124bb565b6101c36119768682613600565b506119818484611bc1565b61198a82612224565b80156119d0576000805461ff0019169055604051600181527f7f26b83ff96e1f2b6a682f133852f6798a09c465da95921460cefb38474024989060200160405180910390a15b50505050505050565b6101c38054610caa906133cf565b6001600160a01b039182166000908152606a6020908152604080832093909416825291909152205460ff1690565b611a1d611b67565b6001600160a01b03811660009081526101c5602052604090205460ff16610f8b576001600160a01b03811660008181526101c56020526040808220805460ff191660019081179091556101c88054918201815583527f8cdee82cb3ac6d59f1f417405a3eecf497b31f3d06d4c506f96deb67789f61e90180546001600160a01b03191684179055517f47d1c22a25bb3a5d4e481b9b1e6944c2eade3181a0a20b495ed61d35b5323f249190a250565b611ad4611b67565b6001600160a01b038116611b395760405162461bcd60e51b815260206004820152602660248201527f4f776e61626c653a206e6577206f776e657220697320746865207a65726f206160448201526564647265737360d01b60648201526084016109da565b610f8b81612224565b60006001600160e01b0319821663152a902d60e11b148061081b575061081b82612540565b60fb546001600160a01b03163314610f9e5760405162461bcd60e51b815260206004820181905260248201527f4f776e61626c653a2063616c6c6572206973206e6f7420746865206f776e657260448201526064016109da565b6127106001600160601b0382161115611c2f5760405162461bcd60e51b815260206004820152602a60248201527f455243323938313a20726f79616c7479206665652077696c6c206578636565646044820152692073616c65507269636560b01b60648201526084016109da565b6001600160a01b038216611c855760405162461bcd60e51b815260206004820152601960248201527f455243323938313a20696e76616c69642072656365697665720000000000000060448201526064016109da565b604080518082019091526001600160a01b039092168083526001600160601b039091166020909201829052600160a01b9091021760c955565b6000818152606760205260409020546001600160a01b0316610f8b5760405162461bcd60e51b8152602060048201526018602482015277115490cdcc8c4e881a5b9d985b1a59081d1bdad95b88125160421b60448201526064016109da565b600081815260696020526040902080546001600160a01b0319166001600160a01b0384169081179091558190611d528261128d565b6001600160a01b03167f8c5be1e5ebec7d5bd14f71427d1e84f3dd0314c0f7b2291e5b200ac8c7c3b92560405160405180910390a45050565b6000828152606760205260409020546001600160a01b0316611e065760405162461bcd60e51b815260206004820152602e60248201527f45524337323155524953746f726167653a2055524920736574206f66206e6f6e60448201526d32bc34b9ba32b73a103a37b5b2b760911b60648201526084016109da565b6000828152609760205260409020611e1e8282613600565b506040518281527ff8e1a15aba9398e019f0b49df1a4fde98ee17ae345cb5f6b5e2c27f5033e8ce790602001610876565b600080611e5b8361128d565b9050806001600160a01b0316846001600160a01b03161480611e825750611e8281856119e7565b8061154c5750836001600160a01b0316611e9b8461093f565b6001600160a01b031614949350505050565b826001600160a01b0316611ec08261128d565b6001600160a01b031614611ee65760405162461bcd60e51b81526004016109da9061374c565b6001600160a01b038216611f485760405162461bcd60e51b8152602060048201526024808201527f4552433732313a207472616e7366657220746f20746865207a65726f206164646044820152637265737360e01b60648201526084016109da565b611f558383836001612565565b826001600160a01b0316611f688261128d565b6001600160a01b031614611f8e5760405162461bcd60e51b81526004016109da9061374c565b600081815260696020908152604080832080546001600160a01b03199081169091556001600160a01b0387811680865260688552838620805460001901905590871680865283862080546001019055868652606790945282852080549092168417909155905184937fddf252ad1be2c89b69c2b068fc378daa952ba7f163c4a11628f55a4df523b3ef91a4505050565b610f8b611b67565b7f4910fdfa16fed3260ed0e7147f7cc6da11a60208b5b9406d12a635614ffd91435460ff161561205957610a7b83612572565b826001600160a01b03166352d1902d6040518163ffffffff1660e01b8152600401602060405180830381865afa9250505080156120b3575060408051601f3d908101601f191682019092526120b091810190613791565b60015b6121165760405162461bcd60e51b815260206004820152602e60248201527f45524331393637557067726164653a206e657720696d706c656d656e7461746960448201526d6f6e206973206e6f74205555505360901b60648201526084016109da565b6000805160206138b483398151915281146121855760405162461bcd60e51b815260206004820152602960248201527f45524331393637557067726164653a20756e737570706f727465642070726f786044820152681a58589b195555525160ba1b60648201526084016109da565b50610a7b83838361260e565b612199612633565b61012d805460ff191690557f5db9ee0a495bf2e6ff9c91a7834c1ba4fdd244a5e8aa4e537bd38aeae4b073aa335b6040516001600160a01b03909116815260200160405180910390a1565b6121ed8161267d565b60008181526097602052604090208054612206906133cf565b159050610f8b576000818152609760205260408120610f8b91612dc3565b60fb80546001600160a01b038381166001600160a01b0319831681179093556040519116919082907f8be0079c531659141344cd1fd0a4f28419497f9722a3daafe3b4186f6b6457e090600090a35050565b61227e6122b4565b61012d805460ff191660011790557f62e78cea01bee320cd4e420270b5ea74000d11b0c9f74754ebdbfc544b05a2586121c73390565b61012d5460ff1615610f9e5760405162461bcd60e51b815260206004820152601060248201526f14185d5cd8589b194e881c185d5cd95960821b60448201526064016109da565b6111d6828260405180602001604052806000815250612720565b816001600160a01b0316836001600160a01b0316036123765760405162461bcd60e51b815260206004820152601960248201527f4552433732313a20617070726f766520746f2063616c6c65720000000000000060448201526064016109da565b6001600160a01b038381166000818152606a6020908152604080832094871680845294825291829020805460ff191686151590811790915591519182527f17307eab39ab6107e8899845ad3d59bd9653f200f220920489ca2b5937696c31910160405180910390a3505050565b6123ee848484611ead565b6123fa84848484612753565b6117605760405162461bcd60e51b81526004016109da906137aa565b606061242182611cbe565b600061243860408051602081019091526000815290565b905060008151116124585760405180602001604052806000815250612483565b8061246284612851565b60405160200161247392919061371d565b6040516020818303038152906040525b9392505050565b600054610100900460ff166124b15760405162461bcd60e51b81526004016109da906137fc565b6111d682826128e3565b600054610100900460ff16610f9e5760405162461bcd60e51b81526004016109da906137fc565b600054610100900460ff166125095760405162461bcd60e51b81526004016109da906137fc565b610f9e612923565b600054610100900460ff166125385760405162461bcd60e51b81526004016109da906137fc565b610f9e612953565b60006001600160e01b03198216632483248360e11b148061081b575061081b82612987565b61256d6122b4565b611760565b6001600160a01b0381163b6125df5760405162461bcd60e51b815260206004820152602d60248201527f455243313936373a206e657720696d706c656d656e746174696f6e206973206e60448201526c1bdd08184818dbdb9d1c9858dd609a1b60648201526084016109da565b6000805160206138b483398151915280546001600160a01b0319166001600160a01b0392909216919091179055565b612617836129d7565b6000825111806126245750805b15610a7b576117608383612a17565b61012d5460ff16610f9e5760405162461bcd60e51b815260206004820152601460248201527314185d5cd8589b194e881b9bdd081c185d5cd95960621b60448201526064016109da565b60006126888261128d565b9050612698816000846001612565565b6126a18261128d565b600083815260696020908152604080832080546001600160a01b03199081169091556001600160a01b0385168085526068845282852080546000190190558785526067909352818420805490911690555192935084927fddf252ad1be2c89b69c2b068fc378daa952ba7f163c4a11628f55a4df523b3ef908390a45050565b61272a8383612a3c565b6127376000848484612753565b610a7b5760405162461bcd60e51b81526004016109da906137aa565b60006001600160a01b0384163b1561284957604051630a85bd0160e11b81526001600160a01b0385169063150b7a0290612797903390899088908890600401613847565b6020604051808303816000875af19250505080156127d2575060408051601f3d908101601f191682019092526127cf9181019061387a565b60015b61282f573d808015612800576040519150601f19603f3d011682016040523d82523d6000602084013e612805565b606091505b5080516000036128275760405162461bcd60e51b81526004016109da906137aa565b805181602001fd5b6001600160e01b031916630a85bd0160e11b14905061154c565b50600161154c565b6060600061285e83612bd5565b60010190506000816001600160401b0381111561287d5761287d612f6b565b6040519080825280601f01601f1916602001820160405280156128a7576020820181803683370190505b5090508181016020015b600019016f181899199a1a9b1b9c1cb0b131b232b360811b600a86061a8153600a85049450846128b157509392505050565b600054610100900460ff1661290a5760405162461bcd60e51b81526004016109da906137fc565b60656129168382613600565b506066610a7b8282613600565b600054610100900460ff1661294a5760405162461bcd60e51b81526004016109da906137fc565b610f9e33612224565b600054610100900460ff1661297a5760405162461bcd60e51b81526004016109da906137fc565b61012d805460ff19169055565b60006001600160e01b031982166380ac58cd60e01b14806129b857506001600160e01b03198216635b5e139f60e01b145b8061081b57506301ffc9a760e01b6001600160e01b031983161461081b565b6129e081612572565b6040516001600160a01b038216907fbc7cd75a20ee27fd9adebab32041f755214dbc6bffa90cc0225b39da2e5c2d3b90600090a250565b606061248383836040518060600160405280602781526020016138d460279139612cad565b6001600160a01b038216612a925760405162461bcd60e51b815260206004820181905260248201527f4552433732313a206d696e7420746f20746865207a65726f206164647265737360448201526064016109da565b6000818152606760205260409020546001600160a01b031615612af75760405162461bcd60e51b815260206004820152601c60248201527f4552433732313a20746f6b656e20616c7265616479206d696e7465640000000060448201526064016109da565b612b05600083836001612565565b6000818152606760205260409020546001600160a01b031615612b6a5760405162461bcd60e51b815260206004820152601c60248201527f4552433732313a20746f6b656e20616c7265616479206d696e7465640000000060448201526064016109da565b6001600160a01b038216600081815260686020908152604080832080546001019055848352606790915280822080546001600160a01b0319168417905551839291907fddf252ad1be2c89b69c2b068fc378daa952ba7f163c4a11628f55a4df523b3ef908290a45050565b60008072184f03e93ff9f4daa797ed6e38ed64bf6a1f0160401b8310612c145772184f03e93ff9f4daa797ed6e38ed64bf6a1f0160401b830492506040015b6d04ee2d6d415b85acef81000000008310612c40576d04ee2d6d415b85acef8100000000830492506020015b662386f26fc100008310612c5e57662386f26fc10000830492506010015b6305f5e1008310612c76576305f5e100830492506008015b6127108310612c8a57612710830492506004015b60648310612c9c576064830492506002015b600a831061081b5760010192915050565b6060600080856001600160a01b031685604051612cca9190613897565b600060405180830381855af49150503d8060008114612d05576040519150601f19603f3d011682016040523d82523d6000602084013e612d0a565b606091505b5091509150612d1b86838387612d25565b9695505050505050565b60608315612d94578251600003612d8d576001600160a01b0385163b612d8d5760405162461bcd60e51b815260206004820152601d60248201527f416464726573733a2063616c6c20746f206e6f6e2d636f6e747261637400000060448201526064016109da565b508161154c565b61154c8383815115612da95781518083602001fd5b8060405162461bcd60e51b81526004016109da9190612f13565b508054612dcf906133cf565b6000825580601f10612ddf575050565b601f016020900490600052602060002090810190610f8b91905b80821115612e0d5760008155600101612df9565b5090565b6001600160e01b031981168114610f8b57600080fd5b600060208284031215612e3957600080fd5b813561248381612e11565b80356001600160a01b0381168114612e5b57600080fd5b919050565b80356001600160601b0381168114612e5b57600080fd5b60008060408385031215612e8a57600080fd5b612e9383612e44565b9150612ea160208401612e60565b90509250929050565b600060208284031215612ebc57600080fd5b5035919050565b60005b83811015612ede578181015183820152602001612ec6565b50506000910152565b60008151808452612eff816020860160208601612ec3565b601f01601f19169290920160200192915050565b6020815260006124836020830184612ee7565b60008060408385031215612f3957600080fd5b612f4283612e44565b946020939093013593505050565b600060208284031215612f6257600080fd5b61248382612e44565b634e487b7160e01b600052604160045260246000fd5b600082601f830112612f9257600080fd5b8135602083016000806001600160401b03841115612fb257612fb2612f6b565b50604051601f19601f85018116603f011681018181106001600160401b0382111715612fe057612fe0612f6b565b604052838152905080828401871015612ff857600080fd5b838360208301376000602085830101528094505050505092915050565b6000806040838503121561302857600080fd5b8235915060208301356001600160401b0381111561304557600080fd5b61305185828601612f81565b9150509250929050565b60008060006060848603121561307057600080fd5b61307984612e44565b925061308760208501612e44565b929592945050506040919091013590565b600080604083850312156130ab57600080fd5b50508035926020909101359150565b602080825282518282018190526000918401906040840190835b818110156130fb5783516001600160a01b03168352602093840193909201916001016130d4565b509095945050505050565b60008060006060848603121561311b57600080fd5b8335925060208401356001600160401b0381111561313857600080fd5b61314486828701612f81565b93969395505050506040919091013590565b6000806040838503121561316957600080fd5b61317283612e44565b915060208301356001600160401b0381111561304557600080fd5b600080600080608085870312156131a357600080fd5b6131ac85612e44565b935060208501356001600160401b038111156131c757600080fd5b6131d387828801612f81565b93505060408501356001600160401b038111156131ef57600080fd5b6131fb87828801612f81565b949793965093946060013593505050565b60006020828403121561321e57600080fd5b81356001600160401b0381111561323457600080fd5b61154c84828501612f81565b6000806040838503121561325357600080fd5b61325c83612e44565b91506020830135801515811461327157600080fd5b809150509250929050565b6000806000806080858703121561329257600080fd5b61329b85612e44565b93506132a960208601612e44565b92506040850135915060608501356001600160401b038111156132cb57600080fd5b6132d787828801612f81565b91505092959194509250565b60008060008060008060c087890312156132fc57600080fd5b86356001600160401b0381111561331257600080fd5b61331e89828a01612f81565b96505060208701356001600160401b0381111561333a57600080fd5b61334689828a01612f81565b95505060408701356001600160401b0381111561336257600080fd5b61336e89828a01612f81565b94505061337d60608801612e44565b925061338b60808801612e60565b915061339960a08801612e44565b90509295509295509295565b600080604083850312156133b857600080fd5b6133c183612e44565b9150612ea160208401612e44565b600181811c908216806133e357607f821691505b60208210810361340357634e487b7160e01b600052602260045260246000fd5b50919050565b6020808252601390820152722737ba1039b4b3b732b91037b91037bbb732b960691b604082015260600190565b82815260406020820152600061154c6040830184612ee7565b6020808252602d908201527f4552433732313a2063616c6c6572206973206e6f7420746f6b656e206f776e6560408201526c1c881bdc88185c1c1c9bdd9959609a1b606082015260800190565b634e487b7160e01b600052601160045260246000fd5b808202811582820484141761081b5761081b61349c565b6000826134e657634e487b7160e01b600052601260045260246000fd5b500490565b634e487b7160e01b600052603260045260246000fd5b6000600182016135135761351361349c565b5060010190565b6020808252602c908201527f46756e6374696f6e206d7573742062652063616c6c6564207468726f7567682060408201526b19195b1959d85d1958d85b1b60a21b606082015260800190565b6020808252602c908201527f46756e6374696f6e206d7573742062652063616c6c6564207468726f7567682060408201526b6163746976652070726f787960a01b606082015260800190565b601f821115610a7b57806000526020600020601f840160051c810160208510156135d95750805b601f840160051c820191505b818110156135f957600081556001016135e5565b5050505050565b81516001600160401b0381111561361957613619612f6b565b61362d8161362784546133cf565b846135b2565b6020601f82116001811461366157600083156136495750848201515b600019600385901b1c1916600184901b1784556135f9565b600084815260208120601f198516915b828110156136915787850151825560209485019460019092019101613671565b50848210156136af5786840151600019600387901b60f8161c191681555b50505050600190811b01905550565b6040815260006136d16040830185612ee7565b90508260208301529392505050565b8481526080602082015260006136f96080830186612ee7565b828103604084015261370b8186612ee7565b91505082606083015295945050505050565b6000835161372f818460208801612ec3565b835190830190613743818360208801612ec3565b01949350505050565b60208082526025908201527f4552433732313a207472616e736665722066726f6d20696e636f72726563742060408201526437bbb732b960d91b606082015260800190565b6000602082840312156137a357600080fd5b5051919050565b60208082526032908201527f4552433732313a207472616e7366657220746f206e6f6e20455243373231526560408201527131b2b4bb32b91034b6b83632b6b2b73a32b960711b606082015260800190565b6020808252602b908201527f496e697469616c697a61626c653a20636f6e7472616374206973206e6f74206960408201526a6e697469616c697a696e6760a81b606082015260800190565b6001600160a01b0385811682528416602082015260408101839052608060608201819052600090612d1b90830184612ee7565b60006020828403121561388c57600080fd5b815161248381612e11565b600082516138a9818460208701612ec3565b919091019291505056fe360894a13ba1a3210667c828492db98dca3e2076cc3735a920a3ca505d382bbc416464726573733a206c6f772d6c6576656c2064656c65676174652063616c6c206661696c6564a164736f6c634300081c000a",
  "linkReferences": {},
  "deployedLinkReferences": {}
}